:020000040800F2
:10000000D85400203D030008D51C0008D50F000877
:100010007F1A0008350B0008A12B00080000000023
:1000200000000000000000000000000009020008BD
:10003000FD0E000800000000B502000829030008BA
:100040005703000857030008570300085703000828
:100050005703000857030008570300085703000818
:100060005703000857030008570300085703000808
:1000700057030008570300087D0B000857030008CA
:10008000A50B000857030008570300085703000892
:1000900057030008570300085703000857030008D8
:1000A00057030008ED200008570300085703000815
:1000B00057030008252200085703000857030008CB
:1000C00057030008570300085703000857030008A8
:1000D000570300084928000857030008A128000812
:1000E0005703000857030008570300085703000888
:1000F0005703000857030008570300085703000878
:100100005703000857030008570300085703000867
:100110005703000857030008570300085703000857
:100120005703000857030008570300085703000847
:100130005703000857030008570300085703000837
:100140005703000857030008570300085703000827
:100150005703000857030008DD0B00085703000889
:100160005703000857030008570300085703000807
:1001700057030008570300085703000857030008F7
:100180005703000857030008DFF810D000F006FC02
:1001900000F000F9004800471D630008D854002013
:1001A00080F309887047EFF309807047684680F351
:1001B000098804480078C00714BF0220032080F398
:1001C0001488704748740008DFF818C0EFF30583FF
:1001D0001B0618BF6047EFF31483DB0708BF6047B7
:1001E00000DF704769640008DFF818C0EFF305838B
:1001F0001B0618BF6047EFF31483DB0708BF604797
:1002000000DF704711660008EFF30980816911F87B
:10021000021CC9BB10B590E80F10E047BDE81040C4
:10022000EFF3098C204B93E80600914229D081B16D
:100230000CB41EF0100F06BF2CED108A032301230F
:1002400081F826302CE9F00FC1F82CC006F0B6FC7E
:100250000CBC1A60D2F82CC0BCE8F00F92F8263023
:1002600013F0020F1ABFBCEC108A6FF0120E6FF081
:10027000020E8CF3098813F0010F08BF704792F843
:100280002500CCF80000704710B5084A126891426A
:1002900009D8074C54F8214090E80F10A047EFF31D
:1002A000098C8CE80F0010BD7C000020380A000883
:1002B000380A000810B506F03BFBBDE81040194BAA
:1002C00093E80600914208BF70470CB4EFF3098C25
:1002D0001EF0100F06BF2CED108A0223002381F8B8
:1002E00026302CE9F00FC1F82CC006F067FC0CBCDE
:1002F0001A60D2F82CC0BCE8F00F92F8263013F048
:10030000020F1ABFBCEC108A6FF0120E6FF0020ED3
:100310008CF3098813F0010F1CBF92F82530CCF83C
:10032000003070477C00002010B506F029FDC4E7BE
:1003300010B506F07FF806F023FDBEE706488047BB
:1003400006480047FEE7FEE7FEE7FEE7FEE7FEE7BA
:10035000FEE7FEE7FEE7FEE78520000889010008CA
:10036000D2B201E000F8012B491EFBD270470022F7
:10037000F6E710B513460A4604461946FFF7F0FFA4
:10038000204610BD421C10F8011B0029FBD1801A29
:100390007047000070B5054C054D03E0206820440F
:1003A0008047241DAC42F9D170BD000020770008C1
:1003B000247700082DE9FE4F804681EA0300C00F34
:1003C0000C46009021F0004123F00045B8EB0200FC
:1003D000A94105D24046214690461C460B4602469E
:1003E00023F00040104347D0270DC7F30A00C3F3A2
:1003F0000A510290401A019040286BDAC3F31300AF
:1004000040F4801B0098924620B10023D2EB030AEF
:1004100063EB0B0B01985946C0F14002504600F0C7
:10042000D8F906460D4650465946019A00F0E0F9C3
:1004300010EB08006141002487EA115284EAE77357
:100440001A4340D0009A62B3019A012A4FEA075238
:1004500015DC001B61EB02014FF0004202EA07527B
:10046000CDE90042001C41F5801132462B4600F0D8
:1004700017FA03B0BDE8F08F40462146F9E7001BAC
:1004800061EB0201001C41F5801300185B4120184C
:10049000A2F5001747EB030140EAD570B6196D418C
:1004A00011E06D084FEA360645EAC0754FEA07527B
:1004B000001B61EB0201001C41F5801149084FEA65
:1004C00030000019514132462B4603B0BDE8F04FD1
:1004D00000F0D7B90098012240000023D0EB0202BF
:1004E00063EBE073009821464FEAE074B8EB00003C
:1004F00061EB0401E9E783F000435BE781F0004131
:1005000058E72DE9FE4F81EA030404F0004421F08E
:10051000004100944FF0000B23F0004350EA010427
:100520005ED052EA03045BD0C3F30A54C1F30A5508
:100530002C44A4F2F3340194A0FB0254C1F3130140
:1005400041F48011C3F3130343F4801301FB02440D
:1005500000FB034E840A970A44EA815447EA835712
:10056000A4FB076802958D0A05FB07854FEA932CCB
:1005700004FB0C542705029D4FEA065847EA16373C
:10058000B5EB08056EEB070C870E920E47EA811754
:1005900042EA8312A7FB0201B6EB0B0164EB0004F5
:1005A0002B0D43EA0C335E1844EB1C50DA465146DF
:1005B000E7FB0201C5F313044FEA0B3343EA14537C
:1005C0004FEA0432019C43EA0603A4F10C040294AE
:1005D000009CCDE900B400F063F903B0BDE8F08FF2
:1005E00000200146F9E72DE9F04D81EA030404F00B
:1005F000004B21F0004514464FF0000A23F0004163
:1006000050EA050220D054EA01021DD0C5F30A5772
:100610000246C5F31303C1F31300C1F30A5640F4B5
:10062000801543F48013A7EB0608101BD64608F28A
:10063000FD3873EB050002D308F1010801E09218C0
:100640005B41B8F1000F03DA00200146BDE8F08DF0
:1006500000204FF48011064684460EE0171B73EB12
:10066000050705D3121B63EB050306434CEA010C97
:1006700049084FEA300092185B4150EA0107EDD17A
:1006800052EA030012D082EA040083EA050108431B
:1006900005D0101BAB4106D20122002306E0002248
:1006A0004FF0004302E06FF0010253101AEB060016
:1006B0004CEB085110EB0A0041EB0B01BDE8F04D8B
:1006C00000F0DFB80EB5C10F80EAE0700844CA0739
:1006D000002140F233438DE80E000A460B4600F03D
:1006E000DFF803B000BD00F0004230F000400AD057
:1006F000C10D01F56071C0F3160042EA0151C20854
:1007000040071143704700200146704701F0004345
:1007100030B421F0004150EA010206D00A0DA2F5E2
:100720006072C1F31301002A02DC30BC0020704764
:10073000440F44EAC104C100E01830BC00EBC250D1
:1007400000F068B830B50B46014600202022012495
:1007500009E021FA02F59D4205D303FA02F5491B8F
:1007600004FA02F52844151EA2F10102F1DC30BDA5
:100770002DE9F05F0546002092469B4688460646D6
:10078000814640241BE0284641464746224600F069
:1007900017F953465A46C01A914110D311461846CC
:1007A000224600F016F82D1A67EB01084F46224644
:1007B0000120002100F00DF817EB00094E41201E2A
:1007C000A4F10104DFDC484631462A464346BDE831
:1007D000F09F202A04DB203A00FA02F10020704743
:1007E0009140C2F1200320FA03F31943904070476F
:1007F000202A06DBCB17203A41FA02F043EAE073E5
:1008000006E041FA02F3D040C2F1200291400843D1
:10081000194670470029A8BF7047401C490008BF0F
:1008200020F00100704710B4B0FA80FC00FA0CF020
:1008300050EA010404BF10BC704749B1CCF1200458
:1008400021FA04F411FA0CF118BF012121430843E5
:10085000A3EB0C01CB1D4FEA00614FEA102042BF11
:10086000002010BC704700EBC35010440029A4BF07
:1008700010BC7047401C490008BF20F0010010BCAC
:10088000704710B5141E73F1000408DA401C41F1E2
:10089000000192185B411A4301D120F0010010BD04
:1008A0002DE9F04D92469B4611B1B1FA81F202E07A
:1008B000B0FA80F220329046FFF78BFF04460F46D5
:1008C00040EA0A0041EA0B0153465A46084313D056
:1008D000114653EA010019D0C8F14002504600F019
:1008E0006FF805460E46504659464246FFF771FFDF
:1008F000084305D0012004E020463946BDE8F08DCC
:100900000020054346EAE0762C4337430A98630506
:10091000E40AA0EB08000022FD0A44EA47540A302A
:1009200002D500200146E9E7010510196941DDE91A
:10093000084500196941BDE8F04DA2E7C1F30A522C
:10094000C1F3130140F2FF3341F480119A4202DAFD
:1009500000200146704740F233439A42A2F23342EC
:1009600002DC524200F02CB8FFF733BF30B5041E52
:1009700071F1000404DB4FF00044404264EB0101DC
:10098000141E73F1000405DB1C464FF00043524275
:1009900063EB0403994208BF904230BD064C074DFB
:1009A00006E0E06840F0010394E80700984710343F
:1009B000AC42F6D3FFF7ECFB007700082077000885
:1009C000202A04DB203A21FA02F00021704721FAA4
:1009D00002F3D040C2F1200291400843194670470B
:1009E00070B58C1810F8015B15F0070301D110F8F1
:1009F000013B2A1106D110F8012B03E010F8016B1E
:100A000001F8016B5B1EF9D12B0705D40023521EA0
:100A10000DD401F8013BFAE710F8013BCB1A921C08
:100A200003E013F8015B01F8015B521EF9D5A14206
:100A3000D8D3002070BD00000000000010B52DEDDF
:100A4000028BB0EE408AB0EE480A094A09490A48CA
:100A500005F06AF9074890ED021AD0ED010A90ED11
:100A6000000A064800F00CF8BDEC028B10BD000037
:100A700048500020DC4F0020E84F0020BC0100203F
:100A800001B52DED040B90ED004AB0EE442A90ED37
:100A9000014AF0EE440A90ED024AB0EE441A90ED9D
:100AA000034AF0EE441A9FED214AF0EE442A9FEDEE
:100AB0001F4AB0EE443A9FED1D4AF0EE443A9FEDD6
:100AC0001B4AB0EE440A22EE014A00EEE14AF0EE83
:100AD000004A24EE244AF0EE442A22EE204A01EE97
:100AE000214AF0EE004A24EE244AB0EE443A22EEC7
:100AF000024A00EEE04A01EE414A01EEA14AF0EE60
:100B0000443A9DED004A24EE224ADDED014A03EE0F
:100B1000244ADDED024A03EEA44ADFED054A34EE35
:100B2000644AB0EE440A05B000BD000000000000B9
:100B3000CDCC1C4100BFFEE708B51D208DF800009C
:100B400000208DF8010003208DF8020001208DF8AF
:100B50000300684601F0C0F808BD08B525208DF8EF
:100B6000000000208DF8010001208DF802008DF8B2
:100B70000300684601F0B0F808BD000010B5064952
:100B8000064800F01BF930B1002005490870024901
:100B9000024800F037F810BD00800018586002408D
:100BA0009401002010B50949094800F007F958B12F
:100BB000084805F0CDFD18B10749064805F0A2FB2D
:100BC0000249034800F01EF810BD00000088002014
:100BD00088600240D01D0020E02D002010B506499D
:100BE000064800F0EBF830B10020054908700249D2
:100BF000024800F007F810BD00800028B8640240E9
:100C0000600000200246094B9A4201D2084801E0E8
:100C10000648103801F000531BB1064B0B40C3606F
:100C200002E0044B0B4083607047000010640240F8
:100C3000006002407D0F7D0F21B1026842F0010289
:100C4000026003E0026822F00102026070470000C7
:100C5000016821F0010101600021016041608160B3
:100C6000C1600161212141614A49884204D13D218D
:100C7000484A103A91608CE046491831884205D1C3
:100C80004FF47461434A103A916082E04149303137
:100C9000884205D14FF474113E4A103A916078E0D1
:100CA0003C494831884205D14FF07461394A103AC5
:100CB00091606EE037496031884204D13649354A47
:100CC000103AD16065E033497831884204D1334924
:100CD000304A103AD1605CE02E499031884204D10C
:100CE0002F492C4A103AD16053E02A49A831884252
:100CF00005D14FF03D51274A103AD16049E02949CA
:100D0000884204D13D21274A083A116041E0254933
:100D10001831884205D14FF47461224A083A1160B3
:100D200037E020493031884205D14FF474111D4A13
:100D3000083A11602DE01B494831884205D14FF037
:100D40007461184A083A116023E0164960318842FC
:100D500004D11149134A121F11601AE01149783168
:100D6000884204D10D490F4A121F116011E00D494C
:100D70009031884204D10A490A4A121F116008E0E2
:100D80000849A831884204D14FF03D51054A121F4D
:100D900011607047106002403D000020400F0020AD
:100DA00000003D2010640240014600200A6802F065
:100DB00001020AB1012000E00020704770B5024630
:100DC000002000240025124EB24201D2114B01E056
:100DD0000F4B103B104E0E4036B11E2606EAD124B2
:100DE000166806EA040502E0566906F0800501F07F
:100DF00000560EB15C6800E01C68084E344004EAFE
:100E0000010616B10DB1012000E0002070BD000008
:100E100010640240006002403C0F3C0F7D0F7D0FCC
:100E200010B501F080034BB122B1436943F0800358
:100E3000436103E0436923F08003436180290BD0C1
:100E40002AB1036801F01E042343036004E0036831
:100E500001F01E04A343036010BD000010B5002282
:100E60000268134B1A40CC680B6823434C69234338
:100E70008C692343CC6923430C6A23434C6A234384
:100E80008C6A23434C6B23438C6B23431A430260CD
:100E9000426922F00702D1E90B3423431A4342612D
:100EA0000B6943604B6883608B68C36010BD0000B2
:100EB0003F801CF00AB1016100E0C16070474160F1
:100EC0007047000041F210010248DFF80CC000DF5B
:100ED00070470000D01D00205D67000870B5044613
:100EE0000D46C82221460348DFF80CC000DFC0B21F
:100EF00070BD0000D01D0020556800087047F0B597
:100F00000A4600210023002400BF3DE0012505FA28
:100F100001F3156805EA03049C4234D105684F00CB
:100F20000326BE40B543056015794E00B5400668FE
:100F3000354305601579012D02D01579022D16D1A2
:100F400085684F000326BE40B543856055794E0045
:100F5000B540866835438560456801268E40B543B7
:100F60004560456896798E40B6B235434560C568A0
:100F70004F000326BE40B543C560D5794E00B5404D
:100F8000C6683543C560491C1029BFD3F0BDF0B514
:100F9000002300244D07ED0E02FA05F3CE1000F1F8
:100FA000200555F826504E07F70E0F26BE40B543D4
:100FB000CF1000F1200646F82750CE1000F1200592
:100FC00055F8265045EA0304CE1000F1200545F8F7
:100FD0002640F0BD09A100200BE00A5C124B9A806C
:100FE00000BF114A128802F04002002AF9D0421CC8
:100FF000D0B22A28F1D300BFFEE700000D0A456EEB
:1010000074657220486172644661756C745F4861F2
:101010006E646C65722C2053797374656D20486121
:101020006C742E0D0A0000000010014010B5002065
:101030000E4908600E48006820F440200C49086002
:101040000846006840F48020086000200949C1F883
:10105000A402012004F0AAFD01200449086004F064
:10106000A5FD00200349C1F8A00210BDA0824042A6
:1010700000040240008040421CB50121022000F023
:1010800077FE4FF44070009001208DF8040000209E
:101090008DF8060003208DF8050001208DF807006B
:1010A00069460548FFF72BFF012004490860044901
:1010B000C1F8A4021CBD000000040240A08240420E
:1010C0000080404210B500200E4908600E480068BC
:1010D00020F440200C4908600846006840F4802055
:1010E000086001200949C1F8A40204F05FFD012055
:1010F0000449086004F05AFD00200449C1F8A00228
:1011000010BD0000A0824042000402400080404226
:1011100070B5054600241648006820F440201449A4
:101120000860084600680860002616E000201149A3
:101130000860012004F03AFD01200F49C1F8A00227
:101140006006040E0B487C38006808B1601CC4B20D
:10115000012004F02BFD701CC6B2082EE6DB15B989
:10116000FFF7B0FF01E0FFF761FF204670BD000010
:1011700000040240A08240420080404270B5044614
:101180001448006820F440201249086008460068AE
:1011900040F48020086000200F490860002516E018
:1011A000E0090D49091D08606006040E012004F0E5
:1011B000FDFC01200949C1F8A00204F0F7FC002061
:1011C00005490860012004F0F1FC681CC5B2082D37
:1011D000E6DB70BD00040240A08240420080404235
:1011E00010B50F48006820F440200D4908600846FB
:1011F000006840F48020086001200A4908600A491C
:10120000C1F8A00204F0D2FC0020064908600120C9
:1012100004F0CCFC00200449C1F8A00210BD00007D
:1012200000040240A48240420080404210B50E48B3
:10123000006820F440200C4908600846006840F42B
:10124000802008600020094908600949C1F8A4020B
:10125000012004F0ABFC0120044908600449C1F8F6
:10126000A40204F0A3FC10BD00040240A08240428E
:101270000080404210B500241348006820F440204C
:101280001149086008460068086001200F4908609D
:1012900004F08CFC01200E49C1F8A00204F086FC89
:1012A00007E0601CC4B2FA2C03DDFFF7BFFF01208A
:1012B00010BD0648803800680028F2D10349091F94
:1012C000086000BFF4E7000000040240A48240422E
:1012D0000080404210B50549054800F033F9054B40
:1012E000054A0349014800F013F910BDC44F00201E
:1012F000D04F0020E84F0020DC4F00200EB5012128
:10130000022000F045FD4FF6FF7001905320ADF82C
:1013100000000020ADF80800ADF80200694604485E
:1013200001F02AFA0121024801F0A9F80EBD0000DF
:101330000004004000B587B00121084600F018FD08
:101340000121102000F044FD072209211D48FFF76C
:101350001EFE07220A211B48FFF719FE00208DF808
:101360001A0001208DF81B0002208DF818000002E1
:10137000059002208DF8190005A91248FFF7BFFD5E
:1013800002208DF818004002059005A90D48FFF7CE
:10139000B6FD4FF4E13001900020ADF80800ADF843
:1013A0000A00ADF80C00ADF810000C20ADF80E00EE
:1013B00001A9054801F086FB0121034801F098FAD4
:1013C00007B000BD00000240001001400EB5012131
:1013D000082000F0DDFC4FF0FF3001905320ADF805
:1013E00000000020ADF80200ADF80800694604488E
:1013F00001F0C2F90121024801F041F80EBD0000E0
:10140000000C0040F0EE400AF6EE001A60EEA11A61
:10141000B0EE611AB0EE600A10EE100A0749A1EBB7
:10142000600000EE100A21EE002AF7EE081A42EEE4
:10143000401A61EE801AB0EE610A7047DF59375FDB
:1014400030B587B004460025182101A8FEF78FFFAC
:1014500000BF2DE02B492C4800F05AF92A49B1F978
:1014600000100198084401902749B1F90210029830
:10147000084402902449B1F90410039808440390E9
:101480002049B1F900100498084404901D49B1F9AD
:1014900002100598084405901A49B1F904100698FD
:1014A000084406900520DFF864C000DF681CC5B260
:1014B000642DCFDB6421019890FBF1F000B2208015
:1014C000029890FBF1F000B26080039890FBF1F07D
:1014D000C0F5805000B2A080049890FBF1F000B2FB
:1014E000E080059890FBF1F000B22081069890FB17
:1014F000F1F000B260811420DFF810C000DF07B007
:1015000030BD0000A20100209C010020A965000858
:1015100090ED000A82ED000A90ED010A82ED010AC9
:1015200090ED020A82ED020A91ED000A83ED000AB5
:1015300091ED010A83ED010A91ED020A83ED020AA1
:10154000704700002DE9FC5F06460F460024002589
:10155000A046A146A246A3460020019000905F4A03
:101560005F49604800F022F95E4800885E495F4AA2
:10157000127821F812005B4840885D495B4A127876
:1015800021F81200574880885A49584A127821F8A1
:101590001200534800885849584A127821F812001E
:1015A0004F4840885649554A127821F812004C4855
:1015B00080885449514A127821F8120000BF0DE08A
:1015C000494830F914008044494830F914008144F6
:1015D000484830F914008244601CC4B2062CEFDB8A
:1015E000062098FBF0F899FBF0F99AFBF0FA002539
:1015F00011E0414830F915008344414830F9151095
:101600000198084401903F4830F9151000980844AB
:101610000090681CC5B2062DEBDB06209BFBF0FB9F
:101620000621019890FBF1F00190009890FBF1F0F9
:10163000009000EE108AB8EEC00ADFED330A80EEAB
:10164000201A87ED001A00EE109AB8EEC00ADFEDFE
:101650002E0A80EE201A87ED011A00EE10AAB8EECD
:10166000C00ADFED290A80EE201A87ED021A00EE8B
:1016700010BAB8EEC00ADFED250A80EE201A86ED1A
:10168000001A9DED010AB8EEC00ADFED200A80EED7
:10169000201A86ED011A9DED000AB8EEC00ADFEDB2
:1016A0001B0A80EE201A86ED021A10480078401CB2
:1016B0000E49087008460078062801D100200870FD
:1016C0000E480078401C0D4908700846007806282E
:1016D00001D100200870BDE8FC9F0000B84F002039
:1016E000A20100209C01002090500020CD0100208C
:1016F0009C500020A8500020B4500020CE010020B3
:10170000C0500020CC5000209AF9D04366A6EA448D
:101710002DE9F04F85B004460D460020019002905F
:101720000390049000260027804681468246834627
:10173000009001AB0E223B21682000F0FAF89DF8E2
:1017400005009DF8041040EA01299DF807009DF866
:10175000061040EA012A9DF809009DF8081040EAA9
:10176000012B9DF80D009DF80C1040EA01269DF814
:101770000F009DF80E1040EA01279DF811009DF81A
:10178000101040EA01280FFA89F020800FFA8AF041
:1017900060800FFA8BF0A08030B2288038B2688069
:1017A0000FFA88F0A88005B0BDE8F08F2DE9F04F62
:1017B00087B005460E46144600200390049005901D
:1017C000069000278046814682468346029001901B
:1017D00003AB0E223B21682000F0ABF89DF80D0012
:1017E0009DF80C1040EA0120B4F90010A0EB010AAA
:1017F0009DF80F009DF80E1040EA0120B4F9021088
:10180000A0EB010B9DF811009DF8101040EA01209B
:10181000B4F90410084402909DF815009DF81410C6
:1018200040EA0120B4F90610471A9DF817009DF808
:10183000161040EA0120B4F90810A0EB01089DF849
:1018400019009DF8181040EA0120B4F90A10A0EB25
:1018500001090FFA8AF028800FFA8BF0688002984D
:1018600000B2A88038B230800FFA88F070800FFA8A
:1018700089F0B08007B0BDE8F08F10B5FFF7FCFB32
:1018800080216B2000F0D9F8642004F07FF900215A
:101890006B2000F0D2F8032000F08DF8022000F059
:1018A00082F84FF47A7000F0ABF80021382000F095
:1018B000C4F800216A2000F0C0F80021232000F0C5
:1018C000BCF88021372000F0B8F8752000F014F83B
:1018D0000446682C0CD101216B2000F0AEF80021E9
:1018E0006C2000F0AAF84FF47A7000F089F801E05B
:1018F000012010BD0020FCE770B50446FFF770FC26
:10190000D020FFF73BFCFFF7B5FC2046FFF736FC85
:10191000FFF7B0FCFFF764FCD120FFF72FFCFFF7C7
:10192000A9FC0020FFF7F4FB0546FFF77FFC2846E3
:1019300070BD2DE9F04106460F4614461D46FFF7DF
:101940004FFC002141EA4601C8B2FFF717FCFFF740
:1019500091FC20B1FFF76AFC0120BDE8F081384618
:10196000FFF70CFCFFF786FCFFF73AFC012101EBC7
:101970004601C8B2FFF702FCFFF77CFC0DE0012C2A
:1019800004D10020FFF7C4FB287003E00120FFF71B
:10199000BFFB2870601EC4B26D1C002CEFD1FFF796
:1019A00045FC0020D9E710B50446E006010E1C20D6
:1019B00000F043F810BD10B50446E006010E1B20F0
:1019C00000F03BF810BD70B504460025BC2C01DBCF
:1019D000012510E0622C01DB02250CE02A2C01DB42
:1019E000032508E0142C01DB042504E00A2C01DBAC
:1019F000052500E0062529461A2000F01EF870BDD6
:101A000070B50446B4F57A7F01DD4FF47A74042C86
:101A100000DA04244FF47A7090FBF4F0401EC5B253
:101A20002946192000F009F80546264604EBD67130
:101A3000C1F34F00FFF7C7FF70BD70B505460C46F8
:101A4000FFF7CEFBD020FFF799FBFFF713FC18B18F
:101A5000FFF7ECFB012070BD2846FFF78FFBFFF777
:101A600009FC2046FFF78AFBFFF704FC18B1FFF7DB
:101A7000DDFB0120EFE7FFF7D9FB0020EBE700BF1C
:101A8000FEE7000030B587B005460024182101A804
:101A9000FEF76DFC00BF0EE005EB840090ED000A40
:101AA000DFED580A20EE200A01A800EB840080ED4B
:101AB000000A601CC4B2062CEEDB9DED010ADFEDCE
:101AC000520A30EE200ABCEEC00A10EE100A4FF0A7
:101AD000804148639DED020ADFED4B0A30EE200A9B
:101AE000BCEEC00A10EE100A88639DED030ADFED1C
:101AF000460A30EE200ABCEEC00A10EE100AC86397
:101B00009DED040ADFED400A30EE200ABCEEC00A6B
:101B100010EE100A08640846406B40F2AA51884251
:101B200003D94FF4B960C10648634FF08040406B61
:101B300000EE100AB8EE400ADFED340AB4EEE00A17
:101B4000F1EE10FA04D24FF496604FF080414863F2
:101B50004FF08040806B40F2AA51884202D908467B
:101B6000410788634FF08040806B00EE100AB8EEAA
:101B7000400ADFED260AB4EEE00AF1EE10FA04D2D4
:101B80004FF496604FF0804188634FF08040C06B07
:101B900040F2AA51884202D908464107C8634FF073
:101BA0008040C06B00EE100AB8EE400ADFED170A65
:101BB000B4EEE00AF1EE10FA04D24FF496604FF062
:101BC0008041C8634FF08040006C40F2AA518842C7
:101BD00002D90846410708644FF08040006C00EECF
:101BE000100AB8EE400ADFED090AB4EEE00AF1EEA1
:101BF00010FA04D24FF496604FF08041086407B0A9
:101C000030BD000000005C420080A2440000964409
:101C100090ED001A30EE411AD0ED011A9FED232A03
:101C200002EE211AD0ED021A31EE611A81ED001A8E
:101C3000D0ED001A9FED1D2AB0EE401A02EE211AD7
:101C4000D0ED011A31EE211AD0ED021A31EE211A2F
:101C500081ED011A90ED001A31EE001AD0ED011A53
:101C60009FED122A02EE611AD0ED021A31EE611ACE
:101C700081ED021AD0ED001A9FED0C2AB0EE401A49
:101C800002EE611AD0ED011A31EE611AD0ED021A9E
:101C900031EE211A81ED031A9FED041A81ED041A29
:101CA0009FED021A81ED051A704700000000000048
:101CB00000B5F0EE402AB0EE603AF0EE430A034978
:101CC0000348B0EE620AFFF7A3FF00BD90000020BA
:101CD000683A00207047000070B5002100230F22F1
:101CE000C4781CB3174C246804F4E064C4F5E064C1
:101CF000C4F30721C1F10404E3B20A4144789C40D3
:101D0000E1B28478144021430C07210E0E4C057873
:101D10006155047804F01F050124AC4005786D116D
:101D2000AD0005F1E025C5F8004109E0047804F0B4
:101D30001F050124AC40054D0678761145F8264074
:101D400070BD00000CED00E000E400E080E100E088
:101D500041F28830DFF814C000DF4FF47A70C1061A
:101D600048638863C863086470470000A965000879
:101D700029B1064A12680243044B1A6004E0034A80
:101D800012688243014B1A607047000030380240ED
:101D900029B1064A12680243044B1A6004E0034A60
:101DA00012688243014B1A607047000040380240BD
:101DB00029B1064A12680243044B1A6004E0034A40
:101DC00012688243014B1A607047000020380240BD
:101DD00029B1064A12680243044B1A6004E0034A20
:101DE00012688243014B1A60704700004438024079
:101DF00029B1064A12680243044B1A6004E0034A00
:101E000012688243014B1A60704700002438024078
:101E1000F0B5002100220024022500260223324FC3
:101E20003F6807F00C0121B1042905D0082937D1FA
:101E300005E02E4F076036E02D4F076033E02A4F54
:101E40003F1F3F68C7F38056274F3F1F3F6807F08B
:101E50003F036EB1264FB7FBF3F7DFF88CC0ACF150
:101E6000040CDCF800C0CCF3881C07FB0CF40CE07D
:101E70001E4FB7FBF3F7DFF870C0ACF1040CDCF8D1
:101E800000C0CCF3881C07FB0CF4174F3F1F3F68C2
:101E9000C7F301477F1C7D00B4FBF5F7076002E044
:101EA000124F076000BF00BF0F4F3F6807F0F001FF
:101EB0000909104F7A5C0768D74047600A4F3F68AE
:101EC00007F4E051890A0B4F7A5C4768D740876076
:101ED000054F3F6807F46041490B064F7A5C47683D
:101EE000D740C760F0BD0000083802400024F4006D
:101EF00040787D01610000200146012904D10F4A8C
:101F000012680F4B1A6017E0B1B90C4A12680D4BFA
:101F10001A601A4612680A4B1B689A4207D2084A8E
:101F20001268C2F1FF32074B1B68D01804E0054A63
:101F30001268034B1B68D01A70470000240C004045
:101F4000A8000020AC0000200146012904D10F4A5E
:101F500012680F4B1A6017E0B1B90C4A12680D4BAA
:101F60001A601A4612680A4B1B689A4207D2084A3E
:101F70001268C2F1FF32074B1B68D01804E0054A13
:101F80001268034B1B68D01A70470000240C0040F5
:101F9000B0000020B40000200CB50020019000909B
:101FA0003448006840F480303249086000BF31484E
:101FB000006800F4003000900198401C01900098E7
:101FC00018B90198B0F5A04FF1D12A48006800F483
:101FD000003010B10120009001E000200090009836
:101FE000012846D123484030006840F08050214904
:101FF000403108602048006840F440401E490860B5
:102000001C48083000681B49083108600846006811
:1020100040F4004008600846006840F4A0500860A2
:102020001648091F0860081F006840F08070091FEB
:10203000086000BF0F48006800F000700028F9D069
:1020400040F205700E4908600A480830006820F028
:1020500003000849083108600846006840F00200A3
:10206000086000BF03480830006800F00C00082832
:10207000F8D10CBD003802400070004019544007F0
:10208000003C024010B51548006840F47000134948
:1020900008601348006840F0010011490860002002
:1020A0000F49083108600E4800680E4908400C4985
:1020B00008600D48091D0860081F006820F4802092
:1020C000091F0860002006490C310860FFF764FF13
:1020D0004FF0006001498039086010BD88ED00E0D4
:1020E00000380240FFFFF6FE1030002410B5012139
:1020F000064800F0D3F9012802D10548006880475E
:102100000121024800F0B8F910BD000000000140B4
:102110005C00002000B58BB001210320FFF728FEF2
:1021200001210846FFF734FE40F60800099002201E
:102130008DF8280003208DF8290009A93748FEF7FB
:10214000DEFE48F20400099002208DF828000320EA
:102150008DF8290009A93248FEF7D1FE012203219A
:102160002E48FEF714FF01220F212D48FEF70FFF26
:1021700001220B212948FEF70AFF012202212848EB
:10218000FEF705FF5320ADF818000020ADF81A0047
:1021900044F6206007900020ADF8200006A94FF01B
:1021A000804000F0E9FA7020ADF804000120ADF89D
:1021B0000600002003900220ADF8100001A940079E
:1021C00000F086F901A94FF0804000F0C9F901A99B
:1021D0004FF0804000F024FA01A94FF0804000F059
:1021E00079FA0821C80600F0B1F90821C80600F004
:1021F00009FA0821C80600F063FA0821C80600F0B1
:10220000A5FA0121880700F02BF90121880700F0C9
:1022100036F9032003F0D2FB0BB000BD00040240EE
:102220000000024010B502213D4800F037F9C8B166
:1022300002213B4800F020F93A48006928B1002209
:102240000221374800F03BF909E0354800F023F956
:102250003449096844182146314800F084FA31496C
:10226000886A804704212E4800F018F9C8B104217B
:102270002B4800F001F92B48406928B100220421C5
:10228000274800F01CF909E0254800F004F9254929
:10229000496844182146224800F067FA2149C86A73
:1022A000804708211E4800F0F9F8C8B108211C48F1
:1022B00000F0E2F81B48806928B100220821184884
:1022C00000F0FDF809E0164800F0E5F815498968C6
:1022D00044182146124800F04AFA1249086B804718
:1022E00010210F4800F0DAF8C8B110210C4800F0B6
:1022F000C3F80C48C06928B100221021084800F03A
:10230000DEF809E0064800F0C6F80649C968441836
:102310002146034800F02DFA0249486B804710BD62
:1023200000040040981D002000B58BB0012106205C
:10233000FFF71EFD01210220FFF72AFD3020099042
:1023400002208DF8280003208DF8290009A93448BF
:10235000FEF7D5FD4FF44070099002208DF828005B
:1023600003208DF8290009A92E48FEF7C8FD022296
:1023700004212B48FEF70BFE022205212848FEF718
:1023800006FE022208212748FEF701FE022209214B
:102390002448FEF7FCFD5320ADF818000020ADF8EE
:1023A0001A004FF47A7007900020ADF8200006A9BB
:1023B0001D4800F0E1F97020ADF804000120ADF8EF
:1023C0000600002003900220ADF8100001A9164875
:1023D00000F07EF801A9144800F0C2F801A91248E3
:1023E00000F01EF901A9104800F074F908210E4808
:1023F00000F0ACF808210C4800F004F908210A4864
:1024000000F05EF90821084800F0A0F90121064813
:1024100000F026F80121044800F031F80BB000BDAF
:1024200000040240000802400004004001200B4963
:1024300008610121094841618161C1615320074957
:1024400008624FF6FF7048620020086048608860AC
:10245000C8608862C862086348637047981D00209E
:1024600021B1028842F08002028004E002884FF627
:102470007F731A4002807047CA430282704721B1BD
:10248000028842F00102028004E002884FF6FE73E7
:102490001A40028070470146486A704730B50246CC
:1024A000002000230024158A05EA0103958905EA26
:1024B000010413B10CB1012000E0002030BD1AB1BD
:1024C00083890B43838102E083898B438381704737
:1024D00070B5002400220023058C4FF6FE763540AF
:1024E0000584028C8388048B4FF68F752C40B51EB3
:1024F0002C400D882C43751E2A408D892A434D8817
:102500002A43104DA84202D00F4DA84213D14FF6D6
:10251000F7752A40CD892A434FF6FB752A408D88EE
:102520002A434FF6FF652B404FF6FF552B400D8A8F
:102530002B434D8A2B43838004838D68456302843B
:1025400070BD000000000140000401400A46002167
:10255000018B4FF6F7731940114301837047000058
:1025600070B5002400220023058C4FF6EF7635402D
:102570000584028C8388048B48F6FF752C404FF647
:10258000FF452C400D884FF6FF7606EA05252C43C3
:102590004FF6DF752A408D8906EA05152A434D88D6
:1025A00006EA05152A43154DA84202D0144DA8424B
:1025B0001DD14FF67F752A40CD894FF6FF7606EA8A
:1025C00005152A434FF6BF752A408D8806EA051582
:1025D0002A434FF6FF352B404FF2FF752B400D8AF3
:1025E00006EA85052B434D8A06EA85052B43838041
:1025F00004838D688563028470BD00000000014083
:10260000000401400A460021018B4FF2FF7319407C
:102610004FF6FF7303EA022319430183704700005A
:1026200070B5002400220023058C4FF6FF6635406C
:102630000584028C8388848B4FF68F752C404FF66F
:10264000FC752C400D882C434FF6FF552A408D8990
:102650004FF6FF7606EA05252A434D8806EA05254A
:102660002A43154DA84202D0144DA8421DD14FF265
:10267000FF752A40CD894FF6FF7606EA05252A43E5
:102680004FF6FF352A408D8806EA05252A434EF687
:10269000FF752B404DF6FF752B400D8A06EA051598
:1026A0002B434D8A06EA05152B43838084838D686E
:1026B000C563028470BD00000000014000040140B9
:1026C0000A460021818B4FF6F7731940114381832D
:1026D0007047000070B5002200230024058C4EF6E0
:1026E000FF7635400584038C8488828B48F6FF751D
:1026F0002A404FF6FF452A400D884FF6FF7606EA3E
:1027000005252A434DF6FF752B408D8906EA0535D0
:102710002B434D8806EA05352B430A4DA84202D0CB
:10272000094DA84208D14BF6FF752C400D8A4FF693
:10273000FF7606EA85152C43848082838D680564C4
:10274000038470BD00000140000401400A460021DE
:10275000818B4FF2FF7319404FF6FF7303EA022398
:102760001943818370474163704781637047C16338
:10277000704701647047000000220288184B98429D
:102780000ED0184B98420BD0B0F1804F08D0164BAA
:10279000984205D0154B984202D0154B984204D16F
:1027A0004FF68F731A404B881A43124B984207D04A
:1027B000114B984204D04FF6FF431A400B891A433D
:1027C00002804B68C3620B880385054B984202D098
:1027D000044B984201D18B7A038601238382704790
:1027E00000000140000401400004004000080040D7
:1027F000000C0040001000400014004070B504467A
:102800000D460F480078C8B900210E48FEF714FAAB
:1028100000BF0C48FEF7C8FA0028FAD10022214672
:102820000848FEF747FBA9B20648FEF748FB01211E
:102830000448FEF701FA01200149087070BD00004C
:1028400060000020B864024010B500BF40F224418F
:10285000104800F0E8F8D8B10F4804F0CDFB002193
:102860000E48FEF7E9F900BF0C48FEF79DFA002874
:10287000FAD14FF480610948FEF721FB0121074896
:10288000FEF7DAF903480088C4B202488088C4B26F
:1028900010BD000000100140002E002040640240E6
:1028A00010B500BF40F224410F4800F0BCF8C8B199
:1028B00000210E48FEF7C0F900BF0C48FEF774FA7D
:1028C0000028FAD14FF480610848FEF7F8FA012198
:1028D0000648FEF7B1F904480088C4B20248001D5A
:1028E0000088C4B210BD00000048004028600240CB
:1028F00021B1828942F40052828104E082894DF63E
:10290000FF731A40828170471AB1838A0B43838216
:1029100002E0838A8B4383827047000010B504462F
:102920003248844208D101211020FFF761FA0021CA
:102930001020FFF75DFA57E02D48844209D10121AC
:102940004804FFF735FA00214FF40030FFF730FA62
:102950004AE02848844209D101218804FFF728FA77
:1029600000214FF48020FFF723FA3DE02248844203
:1029700009D10121C804FFF71BFA00214FF4002000
:10298000FFF716FA30E01D48844209D101210805FD
:10299000FFF70EFA00214FF48010FFF709FA23E049
:1029A0001748844208D101212020FFF721FA002195
:1029B0002020FFF71DFA17E01248844209D10121B7
:1029C0008807FFF7F5F900214FF08040FFF7F0F995
:1029D0000AE00D48844207D101214005FFF7E8F9DC
:1029E00000216005FFF7E4F910BD00000010014070
:1029F0000044004000480040004C004000500040AF
:102A00000014014000780040007C00400246002095
:102A1000B1F5007F00D100BF13880B400BB101203E
:102A200000E00020704770B5024600240023002516
:102A3000002040F66A16B14200D100BFC1F3421532
:102A400001F01F03012606FA03F3012D02D1968936
:102A5000334006E0022D02D1168A334001E0968A07
:102A600033400C12012606FA04F41688344013B1E0
:102A70000CB1012000E0002070BDF0B50346002439
:102A800000260025002040F66A17B94200D100BF99
:102A90001846C1F3421401F01F06012707FA06F594
:102AA000012C01D10C3004E0022C01D1103000E0E7
:102AB00014301AB107682F43076002E00768AF437C
:102AC0000760F0BD2DE9FF4705460E460024A146EC
:102AD00000BFA046B08900B100BF2C8A24F4405446
:102AE000F08804432C82AC8941F20C608443B088A6
:102AF00031890843718908430443AC81AC8A24F4CA
:102B00004074B0890443AC826846FFF781F92048DD
:102B1000854202D01F48854202D1DDF80C9001E0C9
:102B2000DDF80890A88900F4004040B109EBC90025
:102B300000EB091031684900B0FBF1F707E009EB41
:102B4000C90000EB091031688900B0FBF1F764207F
:102B5000B7FBF0F004012009642101FB1078A8897B
:102B600000F4004040B1322000EBC800B0FBF1F0AF
:102B700000F00700044308E0322000EB0810642155
:102B8000B0FBF1F000F00F0004432C81BDE8FF879B
:102B90000010014000140140C1F308028280704718
:102BA00000BFFEE700B591B001218805FFF7E0F80E
:102BB00001213D48FFF79CFE012240213A48FFF7E2
:102BC000A3FE012280213848FFF79EFE46208DF8A3
:102BD000400002208DF841008DF8420001208DF860
:102BE000430010A8FFF778F83048FEF731F84FF0AF
:102BF000006001902C48001D02902D480390002099
:102C000004904FF480600590002006904FF480609F
:102C100007900020089009904FF480700A904FF4BC
:102C200040300B9000200C900D900E900F9001A959
:102C30001E48FEF713F901211C48FDF7FDFF1B4854
:102C40007830FEF705F84FF0006001901648001D3F
:102C5000029040200490002006904FF4806007907E
:102C60000020089009900A904FF480300B900020CB
:102C70000C900D900E900F9001A90C487830FEF743
:102C8000EDF80122102109487830FEF7C9F800213B
:102C900006487830FDF7D0FF012240F22441024877
:102CA000FFF7EBFE11B000BD001001404064024090
:102CB000002E002000B58FB001216B48FFF758F8B7
:102CC00001218804FFF764F807220B216748FEF70B
:102CD0005EF907220A216648FEF759F94FF40060B1
:102CE0000D9002208DF8380000208DF83A00022067
:102CF0008DF8390001208DF83B000DA95B48FEF7E7
:102D0000FEF84FF480600D9002208DF8380000200E
:102D10008DF83A0002208DF8390001208DF83B0033
:102D20000DA95348FEF7EBF85248FFF7F7FD4FF4B3
:102D3000E13009900020ADF82800ADF82A00ADF888
:102D40002C000C20ADF82E000020ADF8300009A9B1
:102D50004848FFF7B7FE01214648FFF7C9FD0122A9
:102D600040214448FFF7D0FD27208DF8380001208E
:102D70008DF839008DF83A008DF83B000EA8FEF76B
:102D8000ABFF0E208DF8380002208DF839008DF849
:102D90003A0001208DF83B000EA8FEF79DFF364853
:102DA000FDF756FF4FF0006000903248001D019083
:102DB00032480290002003904FF48060049000207D
:102DC00005904FF4806006900020079008904FF423
:102DD000807009904FF440300A9000200B900C90C6
:102DE0000D900E9069462448FEF738F800212248DD
:102DF000FDF722FF012240F224411E48FFF73DFE6D
:102E00001D483030FDF724FF4FF000600090194856
:102E1000001D019040200390002005904FF4806039
:102E2000069000200790089009904FF480300A9097
:102E300000200B900C900D900E9069460E4830309B
:102E4000FEF70CF8012280210A48FFF75DFD012200
:102E5000102109483030FDF7E3FF002106483030EB
:102E6000FDF7EAFE0FB000BD06002000000802409A
:102E7000000402400048004028600240904F0020BB
:102E800010B501210803FEF773FF10BD00B52DED4D
:102E90000A8B85B0B0EE408AF0EE608AB0EE419ABF
:102EA000124880ED038AC0ED048A80ED059A19EE80
:102EB000100AFDF718FC41EC1A0B18EE900AFDF70A
:102EC00012FC41EC1B0B18EE100AFDF70CFC41EC58
:102ED0001C0B8DED02AB8DED00BB53EC1C2B04A045
:102EE00004F092FA05B0BDEC0A8B00BDC83A002090
:102EF000703A256609693A256609643A25660D0A1D
:102F000000000000DFED0F1AC0ED001ADFED0D1A12
:102F1000C0ED011ADFED0B1AC0ED031ADFED091A3F
:102F2000C0ED041ADFED071AC0ED051AC0ED060A60
:102F3000DFED041AC0ED071ADFED021AC0ED081A22
:102F400070470000000000009FED0B0A80ED000AB2
:102F50009FED090A80ED010A9FED070A80ED020A44
:102F60009FED050A80ED030A00218174C17401758B
:102F700001214175704700000000000000B52DEDF3
:102F8000088B85B0B0EE408AB5EEC08AF1EE10FA3B
:102F900026D0154890ED050A10EE101A0846FDF7E8
:102FA000A2FB41EC190B104890ED040A10EE101A28
:102FB0000846FDF798FB41EC1A0B0B4890ED030A0D
:102FC00010EE101A0846FDF78EFB41EC1B0B8DED41
:102FD000029B8DED00AB53EC1B2B04A004F014FA04
:102FE00005B0BDEC088B00BDC83A0020703A2566DC
:102FF00009693A256609643A25660D0A0000000051
:1030000000B52DED0A8B85B0B0EE408AF0EE608AF7
:10301000B0EE419A124880ED038AC0ED048A80ED3B
:10302000059A19EE100AFDF75EFB41EC1A0B18EE3B
:10303000900AFDF758FB41EC1B0B18EE100AFDF748
:1030400052FB41EC1C0B8DED02AB8DED00BB53EC44
:103050001C2B04A004F0D8F905B0BDEC0A8B00BD10
:10306000A43A0020703A256609693A256609643A4F
:1030700025660D0A0000000010B5FDF723FF64204F
:10308000DFF804C000DF10BDA9650008DFED0F1AEE
:10309000C0ED001ADFED0D1AC0ED011AF6EE001AB0
:1030A000C0ED031ADFED0A1AC0ED041ADFED071AAE
:1030B000C0ED051AC0ED060ADFED041AC0ED071ACF
:1030C000DFED021AC0ED081A704700000000000092
:1030D000CDCCCC3D00B52DED088B85B0B0EE408A4F
:1030E000B5EEC08AF1EE10FA26D0154890ED050A2B
:1030F00010EE101A0846FDF7F6FA41EC190B1048CD
:1031000090ED040A10EE101A0846FDF7ECFA41ECB7
:103110001A0B0B4890ED030A10EE101A0846FDF743
:10312000E2FA41EC1B0B8DED029B8DED00AB53ECF5
:103130001B2B04A004F068F905B0BDEC088B00BDA2
:10314000A43A0020703A256609693A256609643A6E
:1031500025660D0A000000000023224A2249234868
:10316000DFF88CC000DF234908600023224A4FF0BB
:1031700002112248DFF878C000DF214908600023EF
:10318000204A21492148DFF868C000DF2049086053
:103190000023204A4FF002111F48DFF854C000DF1F
:1031A0001E49086000231E4A4FF002111D48DFF837
:1031B00040C000DF1C49086000231C4A4FF0021188
:1031C0001B48DFF82CC000DF1A49086000231A4AA8
:1031D0000549891E1948DFF818C000DF1849086042
:1031E000704700006809002003000200BD3300089A
:1031F000116E0008140000206807002091320008BA
:1032000010000020680B002002000400A534000814
:1032100018000020680F0020793600081C000020EC
:1032200068110020413400082000002068150020AB
:10323000453200082800002068130020813A000869
:103240002400002040F6C410DFF830C000DFB7EEE5
:10325000000A0B4880ED000A01200A4908704FF46B
:103260004870DFF818C000DF9FED070A044880EDC2
:10327000000A0020DFF814C000DF0000A965000884
:10328000BC0200203D00002000000000796E000814
:1032900008B50CE0C8216846FDF720FE012802D0E1
:1032A000009803F06DF80220DFF804C000DFF1E7BA
:1032B000A9650008DFED0F1AC0ED001ADFED0D1A49
:1032C000C0ED011AF6EE001AC0ED031ADFED0A1A7E
:1032D000C0ED041ADFED071AC0ED051AC0ED060AAD
:1032E000DFED041AC0ED071ADFED021AC0ED081A6F
:1032F0007047000000000000CDCCCC3D00B52DEDA6
:10330000068B83B0B0EE408AF0EE608A0D4880ED07
:10331000038AC0ED048A18EE900AFDF7E4F941EC47
:10332000190B18EE100AFDF7DEF941EC1A0B8DEDC2
:10333000009B53EC1A2B04A004F066F803B0BDEC1C
:10334000068B00BDA43A0020703A256609693A252B
:103350006609643A25660D0A0000000000B52DEDEF
:10336000068B83B0B0EE408AF0EE608A0D4880EDA7
:10337000038AC0ED058A18EE900AFDF7B4F941EC16
:10338000190B18EE100AFDF7AEF941EC1A0B8DED92
:10339000009B53EC1A2B04A004F036F803B0BDECEC
:1033A000068B00BDA43A0020703A256609693A25CB
:1033B0006609643A25660D0A000000002DED068BB3
:1033C00084B02AE0154890ED080A10EE101A08465D
:1033D000FDF789F941EC180B114890ED080A10EE41
:1033E000101A0846FDF77FF941EC190B0D4890EDD6
:1033F000080A10EE101A0846FDF775F941EC1A0B91
:103400008DED028B8DED009B53EC1A2B06A003F083
:10341000FBFF3220DFF824C000DFD3E7EC3A0020C6
:10342000C83A0020A43A002025372E3366092537F4
:103430002E33660925372E33660D0A00A96500086C
:103440000420DFF814C000DF05E0FDF743FF022091
:10345000DFF808C000DFF8E735670008A965000855
:10346000DFED0F1AC0ED001ADFED0D1AC0ED011AE5
:10347000DFED0B1AC0ED031ADFED091AC0ED041AD7
:10348000DFED071AC0ED051AC0ED060ADFED041ADC
:10349000C0ED071ADFED021AC0ED081A70470000F0
:1034A000000000002DED028B41F28830DFF834C0BF
:1034B00000DF16E00020FEF71FFD04460A48B4FBBB
:1034C000F0F000EE100AB8EE400AB0EE408A02F0CA
:1034D0002FFB0120FEF710FD0220DFF808C000DFFF
:1034E00000BFE7E7A965000840420F0000B52DEDD9
:1034F000068B83B0B0EE408AF0EE608A0D4880ED16
:10350000038AC0ED058A18EE900AFDF7ECF841EC4D
:10351000190B18EE100AFDF7E6F841EC1A0B8DEDC9
:10352000009B53EC1A2B04A003F06EFF03B0BDEC1C
:10353000068B00BDA43A0020703A256609693A2539
:103540006609643A25660D0A0000000000B51E48B1
:10355000FFF7FAFC9FED1D1ADFED1D0A9FED1B0A18
:103560001C48FFF7A7FE9FED191ADFED190A9FED22
:10357000170A1948FFF78AFD9FED141ADFED140AA8
:103580009FED120A1548FFF7BDFC9FED101ADFED05
:10359000100A9FED0E0A124800F04CF89FED0B1A2E
:1035A000DFED0B0A9FED090A0E4800F021F89FEDB0
:1035B000071ADFED070A9FED050A0B48FFF750FFDA
:1035C0000A4800F077F800BD8C3A00200000E14482
:1035D00000009643A43A0020C83A0020EC3A0020AC
:1035E000103B0020343B0020583B0020743A002060
:1035F000DFED0F1AC0ED001ADFED0D1AC0ED011A54
:10360000F7EE001AC0ED031ADFED091AC0ED041A37
:10361000F1EE001AC0ED051AC0ED060ADFED041A3E
:10362000C0ED071ADFED021AC0ED081A704700005E
:1036300000000000DFED0F1AC0ED001ADFED0D1ADB
:10364000C0ED011AF7EE001AC0ED031ADFED091AFA
:10365000C0ED041AF1EE001AC0ED051AC0ED060A1D
:10366000DFED041AC0ED071ADFED021AC0ED081AEB
:1036700070470000000000002DED028B14E00020D8
:10368000FEF762FC0949B0FBF1F100EE101AB8EE4A
:10369000400AB0EE408AFDF7D1F90120FEF754FC54
:1036A0000220DFF80CC000DFE9E7000040420F0015
:1036B000A96500089FED0C0A80ED000A9FED0A0A3B
:1036C00080ED010A9FED080A80ED020A9FED060ACF
:1036D00080ED030A002181740121C174002101756C
:1036E00041758175704700000000000010B5D0EDF5
:1036F000000A91ED001A70EEC10AAB4CC4ED000A4D
:10370000D0ED010A91ED011A70EEC10AA74CC4ED8B
:10371000000AD0ED020A91ED021A70EEC10AA44C23
:10372000C4ED000AA04CD4ED070A94ED001A41EE56
:10373000000AC4ED070AD4ED070A94ED061AF4EE68
:10374000C10AF1EE10FA03DDD4ED060AC4ED070A52
:10375000954CD4ED070A94ED061AB1EE411AF4EE39
:10376000C10AF1EE10FA05D2D4ED060AF1EE600AB4
:10377000C4ED070A8D4CD4ED070A94ED001A41EE12
:10378000000AC4ED070AD4ED070A94ED061AF4EE18
:10379000C10AF1EE10FA03DDD4ED060AC4ED070A02
:1037A000824CD4ED070A94ED061AB1EE411AF4EEFC
:1037B000C10AF1EE10FA05D2D4ED060AF1EE600A64
:1037C000C4ED070A7A4CD4ED070A94ED001A41EED5
:1037D000000AC4ED070AD4ED070A94ED061AF4EEC8
:1037E000C10AF1EE10FA03DDD4ED060AC4ED070AB2
:1037F0006F4CD4ED070A94ED061AB1EE411AF4EEBF
:10380000C10AF1EE10FA05D2D4ED060AF1EE600A13
:10381000C4ED070A644CD4ED030A94ED001A60EE7F
:10382000810A94ED041AD4ED071A41EE210A94EDB1
:10383000001AD4ED011A31EE611AD4ED051A41EEE9
:10384000810AC4ED080A594CD4ED030A94ED001A1C
:1038500060EE810A94ED041AD4ED071A41EE210AB4
:1038600094ED001AD4ED011A31EE611AD4ED051A67
:1038700041EE810AC4ED080A4D4CD4ED030A94EDE3
:10388000001A60EE810A94ED041AD4ED071A41EE95
:10389000210A94ED001AD4ED011A31EE611AD4ED2B
:1038A000051A41EE810AC4ED080A3F4CD4ED010A25
:1038B000C4ED020AD4ED000AC4ED010A3B4CD4ED7C
:1038C000010AC4ED020AD4ED000AC4ED010A384C25
:1038D000D4ED010AC4ED020AD4ED000AC4ED010AD8
:1038E000314CD4ED080AB7EE081AF4EEC10AF1EE35
:1038F00010FA03DDF7EE080AC4ED080A2A4CD4EDED
:10390000080ABFEE081AF4EEC10AF1EE10FA03D26B
:10391000FFEE080AC4ED080A244CD4ED080AB7EEFD
:10392000081AF4EEC10AF1EE10FA03DDF7EE080A08
:10393000C4ED080A1D4CD4ED080ABFEE081AF4EED7
:10394000C10AF1EE10FA03D2FFEE080AC4ED080A2C
:10395000174CD4ED080AB7EE001AF4EEC10AF1EEE6
:1039600010FA03DDF7EE000AC4ED080A104CD4ED9E
:10397000080ABFEE001AF4EEC10AF1EE10FA03D203
:10398000FFEE000AC4ED080A074CD4ED080AC3EDA7
:10399000000A064CD4ED080AC3ED010A044CD4ED2C
:1039A000080AC3ED020A10BDA43A0020C83A00205C
:1039B000EC3A002010B500240BE00948006804EB45
:1039C000440200EB8200816806A000F0C3F9601C8D
:1039D000C4B203480079401EA042EEDC10BD0000D6
:1039E0003001002025730D0A0000000010B52DEDF8
:1039F000028BF0EE408AB0EE608ABCEEE80A10EE70
:103A0000100AC0B2012806D002280CD0032812D018
:103A1000042820D117E0BDEEC80A10EE100A4FF0BE
:103A20008041486317E0BDEEC80A10EE100A4FF05F
:103A3000804188630FE0BDEEC80A10EE100A4FF017
:103A40008041C86307E0BDEEC80A10EE100A4FF0CF
:103A50008041086400BF00BFBCEEE80A10EE100A07
:103A6000C1B2BDEEC80A10EE102A03A003F0CCFCD0
:103A7000BDEC028B10BD000025643A25640D0A00E0
:103A80004FF4FA70DFF81CC000DF4FF47A70C10603
:103A900048638863C863086403E03220DFF804C029
:103AA00000DFFAE7A965000800B52DED0A8B85B0A7
:103AB000B0EE408AF0EE608AB0EE419A124880ED96
:103AC000038AC0ED048A80ED059A19EE100AFCF70E
:103AD0000AFE41EC1A0B18EE900AFCF704FE41ECCA
:103AE0001B0B18EE100AFCF7FEFD41EC1C0B8DEDD4
:103AF00002AB8DED00BB53EC1C2B04A003F084FC47
:103B000005B0BDEC0A8B00BDEC3A0020703A25668A
:103B100009693A256609643A25660D0A0000000025
:103B2000FFF71AFBFFF7A8FA03E00120DFF804C053
:103B300000DFFAE7A965000880ED080AC0ED090A70
:103B400080ED0A1AC0ED011A80ED0B2A80ED0C3AC7
:103B500080ED0D4AC0ED0F2AC0ED103AC0ED114ABC
:103B600080ED0E5AC0ED125A80ED136ADFED046A43
:103B7000C0ED036ADFED026AC0ED006A7047000025
:103B80000000000001B52DED100B2DED108B01464E
:103B9000F0EE408AB0EE609AF0EE419AB0EE61AA83
:103BA000F0EE42AAB0EE62BAF0EE43BAB0EE63CAEB
:103BB000F0EE44CAB0EE64DAF0EE45DAF0EE65FA03
:103BC000B0EE668A9DED22EADDED23EA9DED24FA52
:103BD0009DED1C6AF0EE6F5AB0EE6D5AF0EE4D4A54
:103BE000B0EE6C4AF0EE4C3AB0EE6B3AF0EE4B2A87
:103BF000B0EE6A2AF0EE4A1AB0EE691AF0EE490AFF
:103C0000B0EE680A0846FFF797FF014681ED1B8A70
:103C100081ED1C7AC1ED1D7A81ED1EEAC1ED1FEA2E
:103C200081ED20FA9DED250A81ED210A9DED260A00
:103C300081ED220A9DED270A81ED230A9DED280AD8
:103C400081ED240A9DED290A81ED250A9DED2A0AC0
:103C500081ED260A9FED040A81ED280A0846BDEC95
:103C6000108B11B000BD0000ACC5273711B52DED8C
:103C7000100B2DED108B89B00446B0EE408AF0EEAB
:103C8000608AB0EE419AF0EE619AB0EE42AAF0EE90
:103C900062AAB0EE43BAF0EE63BAB0EE44CAF0EEF8
:103CA00064CAB0EE45DAF0EE65DAB0EE46EAF0EE60
:103CB00066EAB0EE47FADDED2CFA9DED340A8DEDA3
:103CC000080A9DED330A8DED070A9DED320A8DED50
:103CD000060A9DED310A8DED050A9DED300A8DED48
:103CE000040A9DED2F0A8DED030A9DED2E0A8DED40
:103CF000020A9DED2D0A8DED010ACDED00FADDEDF4
:103D0000287AB0EE4F7AF0EE6E6AB0EE4E6AF0EEC0
:103D10006D5AB0EE4D5AF0EE6C4AB0EE4C4AF0EEF1
:103D20006B3AB0EE4B3AF0EE6A2AB0EE4A2AF0EE69
:103D3000691AB0EE491AF0EE680AB0EE480A204659
:103D4000FFF720FF0446204609B0BDEC108B11B0F0
:103D500010BD00000FB4054B10B503A9044A02982A
:103D600000F0BAFF10BC5DF814FB0000DD5B00083A
:103D7000D001002037B514460846064B6A46214656
:103D800001F0B2F904466946002001F06DFD2046BD
:103D90003EBD00006958000803B401984100009836
:103DA00050EAC12018BF04204A0D18BF40F001009E
:103DB00040F2FF72B2EB515F08BF40F002000128F1
:103DC00008BF052002B070474100080218BF042058
:103DD0000A0E18BF40F001004FF07F4232EA0101A5
:103DE00008BF40F00200012808BF0520704700000E
:103DF00010B510EE104A4FF01A402DED028B00EB7B
:103E00004400B0F1C85F4AD84FF0FC40B0EB440F1B
:103E100022D2B0EEC00AF7EE000A30EEC00AF6EE8B
:103E2000000A20EE208A18EE100A03F01FFA00EEB6
:103E3000100A14F0004F1DBF9FED281ADFED280A6D
:103E4000B1EE400A9FED271A08BFF0EE410AF8EEE6
:103E5000001A20EE210A05E020EE008A9FED221ACA
:103E6000DFED220ADFED221A9FED222A70EEC00A52
:103E700020EE080A08EE212ADFED1F1A48EE021A8A
:103E80009FED1E2A08EE212ADFED1D1A48EE021AC8
:103E9000BDEC028B40EE610A30EE810A10BD4FF09E
:103EA000CC40B0EB440F82BF9FED160ABDEC028BF5
:103EB00010BD4FF07F40B0EB440F05D2BDEC028B3C
:103EC000BDE8104000F0ECBB012000F0B7FCBDECF9
:103ED000028BBDE8104000F0E7BB00000000494045
:103EE00022AA7D3A000000000000C93F22AAFD3945
:103EF00024FE1C3DC78AD83C1E67383D1B93993D64
:103F0000AFAA2A3EDB0FC93F70B59B482DED020BCF
:103F10002DED068B079D25F00044A04218DC974844
:103F2000844202DC0AD1069840B19DED060BBDEC3F
:103F3000068B02B0BDE8704000F08EBB002DCCBFF8
:103F40009FED8F0B9FED900BBDEC068B02B070BD0B
:103F50008F48A04215DD8F48A042D8BF4FF0FF34F4
:103F600058DD9DED060B51EC100BFFF715FF0428F3
:103F700008BF00F085FB9DED060BBDEC068B02B083
:103F800070BD9DED060B51EC100B01F01BFECDE951
:103F9000060181489FED828BA0423CDD8248A04211
:103FA0001FDD00249FED82AB9DED060B53EC1A2B19
:103FB00051EC100BFCF7FEF99DED060B41EC190BD3
:103FC00053EC1A2B51EC100BFCF79BFA53EC182B0B
:103FD000FCF791FA53EC192BFCF705FBCDE9060130
:103FE00049E09DED060B012453EC182B51EC100B0E
:103FF000FCF7E0F99DED060B41EC190B53EC182B87
:1040000051EC100BFCF777FA53EC192BFCF7EBFA99
:10401000CDE906012FE06848A0421FDD02249FED94
:10402000689B9DED060B53EC192B51EC100BFCF724
:1040300068FA53EC182BFCF7BDF99DED060B41EC2B
:10404000180B53EC192B51EC100BFCF754FA53ECF2
:10405000182BFCF7C8FACDE906010CE09DED060B24
:10406000032453EC102B9FED580B51EC100BFCF775
:10407000BAFACDE906019DED060B53EC102B51EC7D
:10408000100BFCF73EFA41EC180B53EC182BFCF725
:1040900038FA41EC190B4E480621B0EE490AF0EE11
:1040A000690A784400F05CFA53EC182B51EC100BC1
:1040B000FCF727FA41EC180B4648B0EE490AF0EE3F
:1040C000690A0521784400F04BFA53EC192B51ECA6
:1040D000100BFCF716FA41EC100B51EC180B53ECDB
:1040E000102B002C0EDAFCF765F99DED061B53EC46
:1040F000112BFCF706FA9DED061B53EC112BFCF778
:10410000FDF935E0FCF756F99DED061B53EC112B3C
:10411000FCF7F7F941EC100B2F48784400EBC40092
:1041200090ED001B51EC100B53EC112BFCF7E3F955
:104130009DED061B53EC112BFCF7DDF941EC100B48
:104140002648784400EBC40090ED001B51EC100BA6
:1041500053EC112BFCF7D2F941EC100B002DA2BF50
:10416000BDEC068B02B070BD51EC100B81F000412C
:1041700041EC100B01E70000000010440000F07F4C
:10418000182D4454FB21F93F182D4454FB21F9BF4D
:104190000000DC3F0000203E0000F33F0000000074
:1041A000000000000000F03F0000E63F00000000BB
:1041B00000000000000000400080034000000000FC
:1041C000000000000000F83F000000000000F0BF09
:1041D0002A340000E03300006A330000223300007C
:1041E00070B56B4E2DED040B2DED028B82B0DDF81A
:1041F0001CC0DDE905235C422CF000411C4341EA70
:10420000D474049D22F00040B44205D86C422C4383
:1042100040EAD474B4420BD99DED061B9DED040B0E
:1042200002B0BDEC028B04B0BDE8704000F01EBAD5
:10423000ACF14054A4F17F641C430BD0022404EA87
:10424000AC7444EAD27405439FED538B9FED542B1D
:1042500007D015E09DED040B51EC100B01F009FBAC
:1042600042E0002C11BF012C9DED040B02B0BDEC0F
:10427000028B04BF04B070BD022C38D0032C3BD09D
:104280000B439FED491B9FED4A0B0AD0B14218D159
:10429000B04209D121F0804120F080400791059083
:1042A0000FE0002A15DA10E0434B7B44002C08BFD6
:1042B00093ED000B0DD0012C10D0022C17D0032C45
:1042C0001AD0B0421DD1002A03DAB0EE410AF0EE56
:1042D000610A02B0BDEC028B04B070BD93ED000B1F
:1042E00051EC100B81F0004141EC100BF1E7B0EE06
:1042F000480AF0EE680AECE7B0EE420AF0EE620A15
:10430000E7E7401A00153C28C8BF8DED000B19DC0B
:10431000BCF1000FBEBF10F13C0F9FED290B8DEDDE
:10432000000B0FDB9DED060B53EC102B9DED040BEA
:1043300051EC100BFCF757F901F044FC01F099FA2D
:10434000CDE90001002C08BF9DED000BC1D0012C70
:1043500010D0022C9FED1C0B53EC102B9DED000B8D
:1043600051EC100B0DD0FCF7C6F853EC182BFCF7F2
:10437000C2F8B9E7019880F0004001909DED000B74
:10438000A7E7FCF7B8F853EC182BFCF7B7F8ABE746
:104390000000F07F00000000182D4454FB2109406C
:1043A000182D4454FB2109C0182D4454FB21F9BF9A
:1043B000182D4454FB21F93F523200000000000048
:1043C0000000000000000000075C143326A6A13C9A
:1043D00000B510EE101A2DED028B81B0524A6846DE
:1043E000B2EB410F2ED94FF0E640B0EB410F94BF36
:1043F00000204FF0FF3000900098B0EE408A002877
:104400006ADB10F0010F4BD068EE080A9FED471AE7
:104410009FED470A00EE810A9FED461A10F0020F49
:1044200000EE801AB7EE000A00EE810A02BF01B06A
:10443000BDEC028B00BD00BF01B0B1EE400ABDEC87
:10444000028B00BD3C4B21F00042934241D911F058
:10445000004FDFED3A0A20EE201ADFED390A19BFCE
:1044600031EE601A71EE200A31EE201A71EE600A08
:10447000BDEEE01A11EE100A9FED321A00F00300B3
:1044800000EEC10A9FED301A009000EEC10A9FEDC8
:104490002F1A00EEC10A9FED2E1A00EEC10AABE7FB
:1044A00028EE080A9FED2B1ADFED2B0A10F0020F01
:1044B00040EE410A9FED291A00EE201A61EE000A33
:1044C000B0EE480A08EE200AB6D101B0BDEC028B6E
:1044D00000BD00F0F9F88FE718EE100A4000B0F1C7
:1044E0007F4F0DD218EE100AFFF76EFC042808BFAC
:1044F00000F0E2F8B0EE480A01B0BDEC028B00BD5E
:1045000009D1012000F09AF901B0BDEC028B5DF8F1
:1045100004EB00F0C9B801B0B0EE480ABDEC028B64
:104520005DF804EB00F0BCB8B61F927EB93AB2BA9F
:10453000CA9F2A3DDDFFFFBE490E494683F9223F4F
:104540000000004B0000C93F00A0FD390020A2334D
:104550001A61342C336D4C39DA82083CA0AA2ABE89
:1045600070B504462DED028B4D1E00EBC500B0EE7C
:10457000408AF0EE608A90ED000B35F0060017D00F
:1045800053EC182B51EC100BFBF7BBFF41EC100B5D
:104590006D1E04EBC50090ED001B51EC100B53ECAD
:1045A000112BFBF707FF41EC100B35F00600E7D1AC
:1045B000022D36D0042D1CD0062D1CBFBDEC028B65
:1045C00070BD53EC182B51EC100BFBF79AFF94EDD8
:1045D0000A1B53EC112BFBF7EDFE53EC182BFBF7EA
:1045E00090FF94ED081B53EC112BFBF7E3FE41EC1D
:1045F000100B53EC182B51EC100BFBF782FF94EDD2
:10460000061B53EC112BFBF7D5FE53EC182BFBF7D5
:1046100078FF94ED040B53EC102BFBF7CBFE41EC31
:10462000100B53EC182B51EC100BFBF76AFF94EDB9
:10463000021B53EC112BFBF7BDFE53EC182BFBF7C1
:1046400060FF94ED001B53EC112BFBF7B3FEBDECA8
:10465000028B41EC100B70BD10B553EC102B51ECDC
:10466000100BFBF7A7FE41EC100B10BD10B553EC7F
:10467000112B51EC100BFBF79DFE41EC100B10BD04
:104680009FED050B10B553EC102B51EC100BFBF705
:1046900038FF41EC100B10BD0000000000000010BE
:1046A00030EE000A70470000DFED020A80EEA00A3B
:1046B00070470000000000009FED020A20EE000A93
:1046C00070470000000000102DE9F0014FF07F421C
:1046D000B2EB410F9FBF4FF0FF310160BDE8F00129
:1046E00070474FF0004242EA0123C1F3C752783AC3
:1046F000551112F01F0C434CCCF120067C44C1F341
:10470000C752A2F178024FEA621204EB820254F817
:10471000254008BFD2E9015612D0556804FA0CF4BE
:1047200025FA06F73C43976805FA0CF527FA06F8D0
:10473000D26807FA0CFCF24045EA08054CEA02068A
:10474000A4FB034CA5FB0352A6FB03631D449D423F
:1047500034BF012600261319334416B1934202D9FF
:1047600003E0934201D2012200E00022624402F100
:10477000200C9206DC0C42EA443200EE102A5B0365
:10478000DFED210AF8EEC01A00EE103A4FEA9C1C49
:1047900011F0004FB8EE400AC0F800C020EE201A19
:1047A00000EE105ADFED190AB8EE400A20EE200A9A
:1047B00071EE810A70EE800A10EE902A02F5006216
:1047C0006FF30B0200EE902A70EEE11A31EEC11A7F
:1047D000DFED101A30EE411A9FED0D0A20EE800A2F
:1047E00001EE210A9FED0C1A00EE810A04BFBDE81C
:1047F000F0017047CCF180510160BDE8F001B1EEED
:10480000400A7047082E0000000000360000802C8F
:1048100022AAFD29DB0FC92F0000C92F02E008C81A
:10482000121F08C1002AFAD170477047002001E02A
:1048300001C1121F002AFBD1704700000149086026
:1048400070470000D401002010B52DED0E8B8AB00A
:10485000B7EE080A8DED080A9FED870A8DED070A6D
:10486000B0EE000A8DED060A9FED840A8DED050A73
:104870009FED820A8DED040A9FED800A8DED030AFB
:104880009FED7F0A8DED020A9FED7E0A8DED010AF4
:104890009FED7D0A8DED000AF3EE0E7A9FED7A7A98
:1048A000DFED7A6A9FED7A6ADFED795A9FED785AEB
:1048B000DFED784A9FED784ADFED703A9FED773A69
:1048C000DFED772A9FED772ADFED711A9FED701AE1
:1048D000DFED6F0A9FED6E0A7348FFF753F99FED06
:1048E000730A8DED080A9FED720A8DED070A9FEDA0
:1048F000710A8DED060A9FED660A8DED050A9FEDA2
:10490000640A8DED040A9FED620A8DED030A9FEDA6
:104910006A0A8DED020A9FED690A8DED010A9FED8D
:10492000680A8DED000ADFED5A7A9FED577ADFEDC8
:10493000656A9FED576ADFED645A9FED645ADFEDBB
:10494000644A9FED644ADFED4D3A9FED543ADFED46
:10495000602A9FED602ADFED4E1A9FED5F1ADFEDB2
:104960005F0AB2EE010A5E48FFF70CF95D4C9FED5D
:10497000488ADFED478A9FED469ADFED459A9FED25
:104980005AAADFED5AAA9FED5ABA9FED5ACADFED37
:1049900042CA9FED40DADFED4DDA9FED4BEADFEDE5
:1049A0003ABAB0EE6B6AF0EE4E5AB0EE6D5AF0EED7
:1049B0004D4AB0EE6C4AF0EE4C3AB0EE4B3AF0EEA7
:1049C0006A2AB0EE4A2AF0EE691AB0EE491AF0EE01
:1049D000680AB0EE480A2046FFF7AEF8044600BF6A
:1049E0009FED450A8DED080A9FED440A8DED070AFB
:1049F0009FED270A8DED060A9FED250A8DED050A2C
:104A00009FED230A8DED040A9FED210A8DED030A27
:104A1000B0EE080A8DED020AB1EE0C0A8DED010A26
:104A2000B2EE0E0A8DED000ADFED357A9FED357A94
:104A3000DFED356A9FED166ADFED235A9FED235AAD
:104A4000DFED324A9FED324ADFED0C3A9FED133A2B
:104A5000DFED2E2A9FED2E2ADFED0D1A9FED2D1A88
:104A6000DFED0B0AB1EE040A2B48FFF7FFF80AB09E
:104A7000BDEC0E8B10BD00006666E63F0000FA43F9
:104A800000005C4200004842000070420000B44256
:104A90000000000000409C4500409CC50000FAC397
:104AA0000080BB450080BBC5D801002033333340B4
:104AB000666686409A99993F0000964200008C42B3
:104AC0000000A0420000F0420000007F000000FF54
:104AD00000A08C4500A08CC5CDCC8C3FCDCCCC3D6E
:104AE000BC020020A003002000409CC600409C4661
:104AF00000803BC500803B45CDCC4C3D9A99993E0A
:104B000000004843000096430000C84300007A4478
:104B100000007AC417B7D138440400202DE9FF5FA4
:104B2000DDE90220010DDDF838B0024318D044F66B
:104B30001050A1F2FF3141430D140F98012820D0ED
:104B4000A5EB0B00401C5FEA000A4FF00004474E43
:104B5000DFF81C91A046504616D5CAF1000728E0A0
:104B60000F98012443A2012808D0002100980F9B30
:104B7000C0E90021C0E90243BDE8FF9F6FEA0B01D5
:104B8000F4E7CBF10000DEE7074612E0F80707D0B4
:104B90002246334640464946FBF7B3FC80468946E9
:104BA0002246334610461946FBF7ABFC04460E4638
:104BB0007F10002FEAD1DDE90201BAF1000F424671
:104BC0004B4602DAFBF79DFC01E0FBF70CFD0446C7
:104BD0000E460022284BFBF7C9FE03D84FF0FF30EA
:104BE000014607E00022254B20463146FBF7E2FB59
:104BF000FBF7A4FE102409E0002C0ADB0A220023A4
:104C0000FBF7B6FD019B30321A55641E50EA0102D3
:104C1000F2D1641C019AC4F1110314440F9A012AC1
:104C200003D0012208430DD10AE0084304D000203C
:104C30004FF0110B0F9080E7A3EB0B056D1E0DE0FD
:104C40005B4504DD4FF0000205F1010504E003DAE5
:104C50004FF00002A5F10105002AECD000980F9951
:104C6000C0E90231C0E9004586E7000000002440A9
:104C70000000F03F300000000000F0430000E03F83
:104C8000F0B503460E4602F0004030B122F000407D
:104C9000C01D20F00702102503E0D01C20F0030205
:104CA0000C250AB90120F0BD5019B04201D90120EC
:104CB000F9E7591919609F195F609A60BF1A05E0FA
:104CC0008C18BC4200D902E00C602146F8E700BF16
:104CD0000020086000BFE6E72DE9FF4F8DB00F46CA
:104CE0000546002606E025280BD0DDE90F12904787
:104CF0006D1C761C28780028F5D111B03046BDE82F
:104D0000F08F0024A246A1460122EC4900E00443B2
:104D100015F8013F203B02FA03F00842F7D128784A
:104D20002A2810D06FF02F022878A0F1300109292D
:104D300014D80AEB8A0102EB410144F0020400EBB3
:104D4000010A6D1CF0E701CF5FEA000A03D544F4C5
:104D50000054CAF1000A44F002046D1C28782E2881
:104D600017D115F8010F44F004042A280ED06FF073
:104D70002F022878A0F1300109290AD809EB89010E
:104D800002EB410100EB01096D1CF2E757F8049BAF
:104D90006D1C28786C280FD006DC4C2817D06828AA
:104DA0000DD06A2814D104E0742810D07A280FD1CD
:104DB0000DE044F400140AE044F4801401E044F4EB
:104DC00040146978814202D104F580146D1C6D1C79
:104DD0002A786E2A1FD00CDC632A31D004DC002A2A
:104DE0008BD0582A11D1A3E0642A68D0692A0CD14B
:104DF00065E0732A2ED004DC6F2A73D0702A04D1A8
:104E00009BE0752A6FD0782A6ED01046DDE90F122C
:104E10009047761C50E1C4F30250022806D00328C4
:104E200009D0042801CF09D0066045E101CFF11770
:104E3000C0E9006140E101CF06803DE106703BE141
:104E400017F8040B8DF8000000208DF80100EB46E8
:104E5000012003E057F804BB4FF0FF3061074FF02B
:104E6000000102D40DE008F10101884649450FDA3E
:104E70008045F8DB1BF808100029F4D108E008F1A0
:104E8000010188468142FADB1BF808100029F6D19F
:104E9000DDE90F23AAEB08008146214600F0B6FCAD
:104EA000304400EB080604E0DDE90F121BF8010BAB
:104EB0009047B8F10108F7D221464846F7E00A21A9
:104EC000C4F302534FF0000B0891022B04D001CF22
:104ED000C117032B09D00AE0FF1D27F00707F7E8E9
:104EE000020108E032E01FE020E000B2C117042B0D
:104EF00001D140B2C117031E71F1000307DA4FF070
:104F0000000CD0EB0C006CEB01012D2302E023051B
:104F100004D52B238DF82430012303E0E30701D0CF
:104F20002023F7E7984658E00A2110E010210EE010
:104F300010204FF0000B08900CE010214FF0000BF8
:104F400044F004044FF00809089103E008214FF0F1
:104F5000000B0891C4F30253022B04D001CF0021AF
:104F6000032B06D006E0FF1D27F00707F7E8020134
:104F700003E080B2042B00D1C0B24FF00008230739
:104F80002BD5702A07D0DDF820C08CF0100C5CEA1D
:104F90000B0C05D00EE040238DF82430012308E0EF
:104FA00050EA010306D030238DF824308DF82520F7
:104FB00002239846DDF820C08CF0080C5CEA0B0C4C
:104FC0000BD150EA010301D1630706D530238DF8D8
:104FD00024304FF00108A9F10109582A04D038A261
:104FE0000B9208AA0A920BE03AA2F9E75B46089AEC
:104FF000FBF7BEFB0B9B9B5C0A9A521E0A92137036
:1050000050EA0102F2D10A98ADEB000000F1200B4A
:10501000600702D524F4803401E04FF00109D9453E
:1050200002DDA9EB0B0000E0002000EB0B01414486
:105030000890AAEB010AE00306D4DDE90F2321461C
:10504000504600F0E3FB06444FF0000908E009A9D0
:1050500011F80900DDE90F12904709F10109761CEA
:10506000C145F4DBE0030CD5DDE90F2321465046B2
:1050700000F0CCFB064404E0DDE90F12302090473D
:10508000761C0899481E08900029F5DC08E00A986B
:105090000A990078491C0A91DDE90F129047761CA5
:1050A000BBF10001ABF1010BF1DC21465046DDE91B
:1050B0000F2300F087FB06446D1C1BE60928010046
:1050C000303132333435363738396162636465667E
:1050D0000000000030313233343536373839414240
:1050E00043444546000000002DE9FF4F95B09B4624
:1050F0008946064600250FE2252877D10024274659
:10510000F84A0121059400E0044316F8013F203BD2
:1051100001FA03F01042F7D130782A2811D06FF04D
:105120002F033078A0F13002092A16D8059A44F0EE
:10513000020402EB820203EB42021044761C05904B
:10514000EFE759F8042B0592002A03DA504244F4A1
:105150000054059044F00204761C30782E2816D1B5
:1051600016F8010F44F004042A280DD06FF02F0226
:105170003078A0F13003092B09D807EB870302EB45
:105180004303C718761CF3E759F8047B761C307884
:105190006C280FD006DC4C2817D068280DD06A2860
:1051A00014D104E0742810D07A280FD10DE044F413
:1051B00000140AE044F4801401E044F440147278CE
:1051C000824202D104F58014761C761C3078662861
:1051D0000BD013DC582877D009DC002875D045287F
:1051E000F6D04628F4D047281AD19DE118E063286C
:1051F00035D0642879D0652812D195E1702873D014
:1052000008DC6728F1D069286FD06E280DD06F2890
:1052100006D1B5E073282CD0752875D0782874D0C5
:105220005A46179990476D1C75E1C4F30250022845
:1052300009D003280DD0D9F8001004280DD00D6036
:1052400009F1040967E1D9F80010EA17C1E9005231
:10525000F6E7D9F800100D80F2E70D70F0E719F8C5
:10526000041B8DF8001000208DF80100EA46012093
:1052700003E059F804AB4FF0FF3061074FF0000135
:1052800002D40DE008F101018846B9420FDA8045E9
:10529000F8DB1AF808100029F4D108E008F1010140
:1052A00088468142FADB1AF808100029F6D10598E1
:1052B0005B46A0EB080721463846179A00F0BDFA76
:1052C000284400EB080507E04DE029E10DE01AF85D
:1052D000010B5A4617999047B8F10108F7D25B467F
:1052E00021463846179A13E142E00A220092C4F39D
:1052F00002524FF0000A022A08D059F804CB032AC0
:105300004FEAEC710AD00DE029E02AE009F107012B
:1053100021F00702F2E802C1914609E00FFA8CFC85
:105320004FEAEC71042A03D14FFA8CFC4FEAEC717E
:10533000002907DA0A460021DCF1000C61EB0201CA
:105340002D2202E0220504D52B228DF80420012213
:1053500003E0E20701D02022F7E7904659E00A2156
:1053600002E010220DE010214FF0000A00910BE046
:1053700010224FF0000A44F004040827009203E0D2
:1053800008224FF0000A0092C4F30252022A05D00C
:1053900059F804CB0021032A08D009E009F10701DC
:1053A00021F00702F2E802C1914605E01FFA8CFCE9
:1053B000042A01D10CF0FF0C4FF00008220728D579
:1053C000702806D0009B83F0100353EA0A0305D02F
:1053D0000EE040228DF80420012208E05CEA010280
:1053E00006D030228DF804208DF805000222904668
:1053F000009B83F0080353EA0A030AD15CEA010226
:1054000001D1620705D530228DF804204FF0010844
:105410007F1E582804D034A003900EA802900DE0FF
:1054200036A0F9E753466046009AFBF7A1F9844697
:105430000398825C0298401E029002705CEA0100B0
:10544000F0D1029806A9081A00F1200A600702D5D7
:1054500024F4803400E00127574502DDA7EB0A0061
:1054600000E0002000EB0A01009005984144401A3A
:105470000590E00306D45B462146179A059800F094
:10548000DCF90544002706E001A85A46C05D1799DB
:1054900090476D1C7F1C4745F6DBE0030CD55B464F
:1054A0002146179A059800F0C8F9054404E0302019
:1054B0005A46179990476D1C0099481E0090002984
:1054C000F5DC08E0029802995A460078491C0291DE
:1054D000179990476D1CBAF10001AAF1010AF1DC9D
:1054E00065E10000092801003031323334353637A8
:1054F0003839616263646566000000003031323320
:1055000034353637383941424344454600000000BF
:1055100000F06AF90544761C307800287FF4ECAD81
:1055200019B02846BDE8F08F620700D4062709F1BC
:10553000070222F0070CFCE80223E14603F00048D2
:105540005FEA080C02D00FF2702C0DE05FEA045CF9
:1055500002D50FF2682C07E05FEAC47C02D00FF29C
:10556000602C01E0AFF2700C4FF0FF3823F00043E5
:10557000CDF850C065280CD006DC452809D0462857
:105580001DD047283DD13DE0662818D067287ED140
:1055900038E00021112F01DB112000E0781CCDE95B
:1055A000000106A90EA8FFF7B9FADDE90F010E9A6E
:1055B00003910021009207F1010A04914DE04FF0A0
:1055C00000400097CDE9011006A90EA8FFF7A6FA42
:1055D000DDE90F0203920E9B11990022DDF80CA069
:1055E0000093049211B9791C00EB010AB7EB0A0091
:1055F00004D4C0F1FF3007F1010A0490AAEB0700C0
:10560000019044E0012F00DA01270021112F01DD74
:10561000112000E03846CDE9000106A90EA8FFF7E9
:105620007DFADDE90F010E9A0391002104910092A9
:10563000BA4621070CD40399514500DA8A46BAF1DB
:10564000010F05DD009AAAF10101515C302908D053
:10565000B84202DA10F1040F06DA0121CDE9011097
:1056600015E0AAF10101E9E7002805DC04990144ED
:105670000491AAEB000102E0411C514500DD8A467D
:105680000499401A401C01904FF0004002902007FE
:1056900004D40198504501DBCDF8048000208DF83A
:1056A0004F0002980DF14F07B0F1004F25D02B208D
:1056B0000E9002984FF0020800280CDA4042029047
:1056C0002D200E9007E00A210298FBF73BF83031BD
:1056D000029007F8011DB8F10001A8F10108F2DC01
:1056E00002980028EFD1791E0E980870307800F0EB
:1056F000200040F0450007F8020D12A8C01B00F181
:1057000007081498007800B1012000EB0A01019805
:1057100001EBE07105984144401A401E0590E003FA
:1057200006D45B462146179A059800F086F8054492
:105730001498007818B15A46179990476D1CE003E9
:1057400024D55B462146179A059800F076F8054463
:105750001CE00498002807DBDDE90301884203DD33
:105760000098405C179901E0179930205A469047FD
:10577000049805F10105401C04900198401E019019
:1057800004D12E205A46179990476D1CBAF100019A
:10579000AAF1010ADDDC05E017F8010B5A4617995A
:1057A00090476D1CB8F10001A8F10108F4DC5B46DC
:1057B0002146179A0598ABE62D0000002B0000004B
:1057C000200000002DE9F041044600251E46174642
:1057D000880404D405E039462020B0476D1C641EBF
:1057E000F9D52846BDE8F0812DE9F04104460025B1
:1057F0001E461746880404D405E039462020B047E9
:105800006D1C641EF9D52846BDE8F0812DE9F041F4
:10581000044600251E469046C80301D5302700E007
:105820002027880404D505E041463846B0476D1C62
:10583000641EF9D52846BDE8F0812DE9F041044603
:1058400000251E469046C80301D5302700E02027DA
:10585000880404D505E041463846B0476D1C641EF7
:10586000F9D52846BDE8F0810A68531C0B6010701A
:10587000704710B541EC100BFEF746FB51EC100BD6
:1058800010BD000010B5FDF7FBFA00F061F800F064
:105890002DF800F023F8FBF799FD00F0BDF8FCF7B8
:1058A00039FCFCF741FDFDF705FAFBF7E6FF10B107
:1058B00004A001F0A9FD0848FBF7C2FDFCF748FA77
:1058C00010BD00004D505520496E6974204572721C
:1058D0006F720D0A00000000B84F002010B5FCF7F1
:1058E000A5FDFBF70BFDFBF727F910BD1CB501214A
:1058F0000620FCF73DFA01208DF8040000208DF809
:1059000006008DF8070003208DF80500012000F047
:1059100027F84020009069460B48FBF7F0FA022078
:1059200000F01EF84FF40040009069460748FBF76E
:10593000E6FA032000F014F84FF400500090694696
:105940000148FBF7DCFA1CBD0008024000040240DD
:1059500010B5FBF7EFFCFBF700F9FDF723F910BDDD
:1059600010B50446012C04D0022C06D0032C0ED115
:1059700008E04020094908800EE04FF40040084943
:10598000088009E04FF400500449088004E02146F3
:1059900004A0FEF7DFF900BF00BF10BD18080240E9
:1059A000180402404C45442564CEB4BFAAC6F4C8CE
:1059B000B4B1BBCAB9D3C30D0A00000010B5044688
:1059C000012C04D0022C06D0032C0ED108E040207C
:1059D000094908800EE04FF400400849088009E0BA
:1059E0004FF400500449088004E0214604A0FEF76B
:1059F000B1F900BF00BF10BD1A0802401A040240EE
:105A00004C45442564CEB4BFAAC6F4C8B4B1BBCAE1
:105A1000B9D3C30D0A00000000B58FB001213E4884
:105A2000FCF7A6F901214804FCF7B2F9072203218B
:105A30003A48FBF7ACFA08200D9002208DF83800A8
:105A400000208DF83A0003208DF8390000208DF8F1
:105A50003B000DA93148FBF752FA3148FCF75EFFD5
:105A6000304809900020ADF82800ADF82A004FF426
:105A70008060ADF82C000420ADF82E000020ADF8B9
:105A8000300009A92648FDF71DF801212448FCF73C
:105A90002FFF012240212248FCF736FF10208DF80D
:105AA000380001208DF839008DF83A008DF83B0060
:105AB0000EA8FCF711F91C48FBF7CAF84FF000607C
:105AC00000901748001D0190184802900020039094
:105AD00012200490002005904FF480600690002072
